{
  "_format": "hh-sol-artifact-1",
  "contractName": "TileNFT",
  "sourceName": "contracts/TileNFT.sol",
  "abi": [
    {
      "inputs": [
        {
          "internalType": "string",
          "name": "name",
          "type": "string"
        },
        {
          "internalType": "string",
          "name": "symbol",
          "type": "string"
        },
        {
          "internalType": "string",
          "name": "baseTokenURI",
          "type": "string"
        },
        {
          "internalType": "address",
          "name": "initialOwner",
          "type": "address"
        }
      ],
      "stateMutability": "nonpayable",
      "type": "constructor"
    },
    {
      "inputs": [],
      "name": "ERC721EnumerableForbiddenBatchMint",
      "type": "error"
    },
    {
      "inputs": [
        {
          "internalType": "address",
          "name": "sender",
          "type": "address"
        },
        {
          "internalType": "uint256",
          "name": "tokenId",
          "type": "uint256"
        },
        {
          "internalType": "address",
          "name": "owner",
          "type": "address"
        }
      ],
      "name": "ERC721IncorrectOwner",
      "type": "error"
    },
    {
      "inputs": [
        {
          "internalType": "address",
          "name": "operator",
          "type": "address"
        },
        {
          "internalType": "uint256",
          "name": "tokenId",
          "type": "uint256"
        }
      ],
      "name": "ERC721InsufficientApproval",
      "type": "error"
    },
    {
      "inputs": [
        {
          "internalType": "address",
          "name": "approver",
          "type": "address"
        }
      ],
      "name": "ERC721InvalidApprover",
      "type": "error"
    },
    {
      "inputs": [
        {
          "internalType": "address",
          "name": "operator",
          "type": "address"
        }
      ],
      "name": "ERC721InvalidOperator",
      "type": "error"
    },
    {
      "inputs": [
        {
          "internalType": "address",
          "name": "owner",
          "type": "address"
        }
      ],
      "name": "ERC721InvalidOwner",
      "type": "error"
    },
    {
      "inputs": [
        {
          "internalType": "address",
          "name": "receiver",
          "type": "address"
        }
      ],
      "name": "ERC721InvalidReceiver",
      "type": "error"
    },
    {
      "inputs": [
        {
          "internalType": "address",
          "name": "sender",
          "type": "address"
        }
      ],
      "name": "ERC721InvalidSender",
      "type": "error"
    },
    {
      "inputs": [
        {
          "internalType": "uint256",
          "name": "tokenId",
          "type": "uint256"
        }
      ],
      "name": "ERC721NonexistentToken",
      "type": "error"
    },
    {
      "inputs": [
        {
          "internalType": "address",
          "name": "owner",
          "type": "address"
        },
        {
          "internalType": "uint256",
          "name": "index",
          "type": "uint256"
        }
      ],
      "name": "ERC721OutOfBoundsIndex",
      "type": "error"
    },
    {
      "inputs": [
        {
          "internalType": "address",
          "name": "owner",
          "type": "address"
        }
      ],
      "name": "OwnableInvalidOwner",
      "type": "error"
    },
    {
      "inputs": [
        {
          "internalType": "address",
          "name": "account",
          "type": "address"
        }
      ],
      "name": "OwnableUnauthorizedAccount",
      "type": "error"
    },
    {
      "anonymous": false,
      "inputs": [
        {
          "indexed": true,
          "internalType": "address",
          "name": "owner",
          "type": "address"
        },
        {
          "indexed": true,
          "internalType": "address",
          "name": "approved",
          "type": "address"
        },
        {
          "indexed": true,
          "internalType": "uint256",
          "name": "tokenId",
          "type": "uint256"
        }
      ],
      "name": "Approval",
      "type": "event"
    },
    {
      "anonymous": false,
      "inputs": [
        {
          "indexed": true,
          "internalType": "address",
          "name": "owner",
          "type": "address"
        },
        {
          "indexed": true,
          "internalType": "address",
          "name": "operator",
          "type": "address"
        },
        {
          "indexed": false,
          "internalType": "bool",
          "name": "approved",
          "type": "bool"
        }
      ],
      "name": "ApprovalForAll",
      "type": "event"
    },
    {
      "anonymous": false,
      "inputs": [
        {
          "indexed": false,
          "internalType": "string",
          "name": "newBaseURI",
          "type": "string"
        }
      ],
      "name": "BaseURIUpdated",
      "type": "event"
    },
    {
      "anonymous": false,
      "inputs": [
        {
          "indexed": false,
          "internalType": "uint256",
          "name": "_fromTokenId",
          "type": "uint256"
        },
        {
          "indexed": false,
          "internalType": "uint256",
          "name": "_toTokenId",
          "type": "uint256"
        }
      ],
      "name": "BatchMetadataUpdate",
      "type": "event"
    },
    {
      "anonymous": false,
      "inputs": [
        {
          "indexed": false,
          "internalType": "uint256",
          "name": "_tokenId",
          "type": "uint256"
        }
      ],
      "name": "MetadataUpdate",
      "type": "event"
    },
    {
      "anonymous": false,
      "inputs": [
        {
          "indexed": true,
          "internalType": "address",
          "name": "previousOwner",
          "type": "address"
        },
        {
          "indexed": true,
          "internalType": "address",
          "name": "newOwner",
          "type": "address"
        }
      ],
      "name": "OwnershipTransferred",
      "type": "event"
    },
    {
      "anonymous": false,
      "inputs": [
        {
          "indexed": true,
          "internalType": "address",
          "name": "to",
          "type": "address"
        },
        {
          "indexed": true,
          "internalType": "uint256",
          "name": "tokenId",
          "type": "uint256"
        },
        {
          "indexed": false,
          "internalType": "uint256",
          "name": "x",
          "type": "uint256"
        },
        {
          "indexed": false,
          "internalType": "uint256",
          "name": "y",
          "type": "uint256"
        }
      ],
      "name": "TileMinted",
      "type": "event"
    },
    {
      "anonymous": false,
      "inputs": [
        {
          "indexed": true,
          "internalType": "address",
          "name": "from",
          "type": "address"
        },
        {
          "indexed": true,
          "internalType": "address",
          "name": "to",
          "type": "address"
        },
        {
          "indexed": true,
          "internalType": "uint256",
          "name": "tokenId",
          "type": "uint256"
        }
      ],
      "name": "Transfer",
      "type": "event"
    },
    {
      "inputs": [],
      "name": "GRID_SIZE",
      "outputs": [
        {
          "internalType": "uint256",
          "name": "",
          "type": "uint256"
        }
      ],
      "stateMutability": "view",
      "type": "function"
    },
    {
      "inputs": [],
      "name": "MAX_TILES",
      "outputs": [
        {
          "internalType": "uint256",
          "name": "",
          "type": "uint256"
        }
      ],
      "stateMutability": "view",
      "type": "function"
    },
    {
      "inputs": [
        {
          "internalType": "address",
          "name": "to",
          "type": "address"
        },
        {
          "internalType": "uint256",
          "name": "tokenId",
          "type": "uint256"
        }
      ],
      "name": "approve",
      "outputs": [],
      "stateMutability": "nonpayable",
      "type": "function"
    },
    {
      "inputs": [
        {
          "internalType": "address",
          "name": "owner",
          "type": "address"
        }
      ],
      "name": "balanceOf",
      "outputs": [
        {
          "internalType": "uint256",
          "name": "",
          "type": "uint256"
        }
      ],
      "stateMutability": "view",
      "type": "function"
    },
    {
      "inputs": [
        {
          "internalType": "uint256",
          "name": "",
          "type": "uint256"
        },
        {
          "internalType": "uint256",
          "name": "",
          "type": "uint256"
        }
      ],
      "name": "coordinateToTokenId",
      "outputs": [
        {
          "internalType": "uint256",
          "name": "",
          "type": "uint256"
        }
      ],
      "stateMutability": "view",
      "type": "function"
    },
    {
      "inputs": [
        {
          "internalType": "address",
          "name": "owner",
          "type": "address"
        },
        {
          "internalType": "uint256",
          "name": "x",
          "type": "uint256"
        },
        {
          "internalType": "uint256",
          "name": "y",
          "type": "uint256"
        }
      ],
      "name": "doesOwnTile",
      "outputs": [
        {
          "internalType": "bool",
          "name": "",
          "type": "bool"
        }
      ],
      "stateMutability": "view",
      "type": "function"
    },
    {
      "inputs": [
        {
          "internalType": "uint256",
          "name": "tokenId",
          "type": "uint256"
        }
      ],
      "name": "getApproved",
      "outputs": [
        {
          "internalType": "address",
          "name": "",
          "type": "address"
        }
      ],
      "stateMutability": "view",
      "type": "function"
    },
    {
      "inputs": [
        {
          "internalType": "uint256",
          "name": "x",
          "type": "uint256"
        },
        {
          "internalType": "uint256",
          "name": "y",
          "type": "uint256"
        }
      ],
      "name": "getTileOwner",
      "outputs": [
        {
          "internalType": "address",
          "name": "",
          "type": "address"
        }
      ],
      "stateMutability": "view",
      "type": "function"
    },
    {
      "inputs": [
        {
          "internalType": "uint256",
          "name": "tokenId",
          "type": "uint256"
        }
      ],
      "name": "getTilePosition",
      "outputs": [
        {
          "internalType": "uint256",
          "name": "x",
          "type": "uint256"
        },
        {
          "internalType": "uint256",
          "name": "y",
          "type": "uint256"
        }
      ],
      "stateMutability": "view",
      "type": "function"
    },
    {
      "inputs": [
        {
          "internalType": "address",
          "name": "owner",
          "type": "address"
        }
      ],
      "name": "getTilePositionsOwnedBy",
      "outputs": [
        {
          "components": [
            {
              "internalType": "uint256",
              "name": "x",
              "type": "uint256"
            },
            {
              "internalType": "uint256",
              "name": "y",
              "type": "uint256"
            }
          ],
          "internalType": "struct TileNFT.GridPosition[]",
          "name": "",
          "type": "tuple[]"
        }
      ],
      "stateMutability": "view",
      "type": "function"
    },
    {
      "inputs": [
        {
          "internalType": "address",
          "name": "owner",
          "type": "address"
        }
      ],
      "name": "getTilesOwnedBy",
      "outputs": [
        {
          "internalType": "uint256[]",
          "name": "",
          "type": "uint256[]"
        }
      ],
      "stateMutability": "view",
      "type": "function"
    },
    {
      "inputs": [
        {
          "internalType": "uint256",
          "name": "x",
          "type": "uint256"
        },
        {
          "internalType": "uint256",
          "name": "y",
          "type": "uint256"
        }
      ],
      "name": "getTokenIdByCoordinates",
      "outputs": [
        {
          "internalType": "uint256",
          "name": "",
          "type": "uint256"
        }
      ],
      "stateMutability": "view",
      "type": "function"
    },
    {
      "inputs": [],
      "name": "gridSize",
      "outputs": [
        {
          "internalType": "uint256",
          "name": "",
          "type": "uint256"
        }
      ],
      "stateMutability": "pure",
      "type": "function"
    },
    {
      "inputs": [
        {
          "internalType": "address",
          "name": "owner",
          "type": "address"
        },
        {
          "internalType": "address",
          "name": "operator",
          "type": "address"
        }
      ],
      "name": "isApprovedForAll",
      "outputs": [
        {
          "internalType": "bool",
          "name": "",
          "type": "bool"
        }
      ],
      "stateMutability": "view",
      "type": "function"
    },
    {
      "inputs": [],
      "name": "name",
      "outputs": [
        {
          "internalType": "string",
          "name": "",
          "type": "string"
        }
      ],
      "stateMutability": "view",
      "type": "function"
    },
    {
      "inputs": [],
      "name": "owner",
      "outputs": [
        {
          "internalType": "address",
          "name": "",
          "type": "address"
        }
      ],
      "stateMutability": "view",
      "type": "function"
    },
    {
      "inputs": [
        {
          "internalType": "uint256",
          "name": "tokenId",
          "type": "uint256"
        }
      ],
      "name": "ownerOf",
      "outputs": [
        {
          "internalType": "address",
          "name": "",
          "type": "address"
        }
      ],
      "stateMutability": "view",
      "type": "function"
    },
    {
      "inputs": [],
      "name": "renounceOwnership",
      "outputs": [],
      "stateMutability": "nonpayable",
      "type": "function"
    },
    {
      "inputs": [
        {
          "internalType": "address",
          "name": "from",
          "type": "address"
        },
        {
          "internalType": "address",
          "name": "to",
          "type": "address"
        },
        {
          "internalType": "uint256",
          "name": "tokenId",
          "type": "uint256"
        }
      ],
      "name": "safeTransferFrom",
      "outputs": [],
      "stateMutability": "nonpayable",
      "type": "function"
    },
    {
      "inputs": [
        {
          "internalType": "address",
          "name": "from",
          "type": "address"
        },
        {
          "internalType": "address",
          "name": "to",
          "type": "address"
        },
        {
          "internalType": "uint256",
          "name": "tokenId",
          "type": "uint256"
        },
        {
          "internalType": "bytes",
          "name": "data",
          "type": "bytes"
        }
      ],
      "name": "safeTransferFrom",
      "outputs": [],
      "stateMutability": "nonpayable",
      "type": "function"
    },
    {
      "inputs": [
        {
          "internalType": "address",
          "name": "operator",
          "type": "address"
        },
        {
          "internalType": "bool",
          "name": "approved",
          "type": "bool"
        }
      ],
      "name": "setApprovalForAll",
      "outputs": [],
      "stateMutability": "nonpayable",
      "type": "function"
    },
    {
      "inputs": [
        {
          "internalType": "string",
          "name": "baseTokenURI",
          "type": "string"
        }
      ],
      "name": "setBaseURI",
      "outputs": [],
      "stateMutability": "nonpayable",
      "type": "function"
    },
    {
      "inputs": [
        {
          "internalType": "bytes4",
          "name": "interfaceId",
          "type": "bytes4"
        }
      ],
      "name": "supportsInterface",
      "outputs": [
        {
          "internalType": "bool",
          "name": "",
          "type": "bool"
        }
      ],
      "stateMutability": "view",
      "type": "function"
    },
    {
      "inputs": [],
      "name": "symbol",
      "outputs": [
        {
          "internalType": "string",
          "name": "",
          "type": "string"
        }
      ],
      "stateMutability": "view",
      "type": "function"
    },
    {
      "inputs": [
        {
          "internalType": "uint256",
          "name": "",
          "type": "uint256"
        }
      ],
      "name": "tilePositions",
      "outputs": [
        {
          "internalType": "uint256",
          "name": "x",
          "type": "uint256"
        },
        {
          "internalType": "uint256",
          "name": "y",
          "type": "uint256"
        }
      ],
      "stateMutability": "view",
      "type": "function"
    },
    {
      "inputs": [
        {
          "internalType": "uint256",
          "name": "index",
          "type": "uint256"
        }
      ],
      "name": "tokenByIndex",
      "outputs": [
        {
          "internalType": "uint256",
          "name": "",
          "type": "uint256"
        }
      ],
      "stateMutability": "view",
      "type": "function"
    },
    {
      "inputs": [
        {
          "internalType": "address",
          "name": "owner",
          "type": "address"
        },
        {
          "internalType": "uint256",
          "name": "index",
          "type": "uint256"
        }
      ],
      "name": "tokenOfOwnerByIndex",
      "outputs": [
        {
          "internalType": "uint256",
          "name": "",
          "type": "uint256"
        }
      ],
      "stateMutability": "view",
      "type": "function"
    },
    {
      "inputs": [
        {
          "internalType": "uint256",
          "name": "tokenId",
          "type": "uint256"
        }
      ],
      "name": "tokenURI",
      "outputs": [
        {
          "internalType": "string",
          "name": "",
          "type": "string"
        }
      ],
      "stateMutability": "view",
      "type": "function"
    },
    {
      "inputs": [],
      "name": "totalSupply",
      "outputs": [
        {
          "internalType": "uint256",
          "name": "",
          "type": "uint256"
        }
      ],
      "stateMutability": "view",
      "type": "function"
    },
    {
      "inputs": [],
      "name": "totalTiles",
      "outputs": [
        {
          "internalType": "uint256",
          "name": "",
          "type": "uint256"
        }
      ],
      "stateMutability": "pure",
      "type": "function"
    },
    {
      "inputs": [
        {
          "internalType": "address",
          "name": "from",
          "type": "address"
        },
        {
          "internalType": "address",
          "name": "to",
          "type": "address"
        },
        {
          "internalType": "uint256",
          "name": "tokenId",
          "type": "uint256"
        }
      ],
      "name": "transferFrom",
      "outputs": [],
      "stateMutability": "nonpayable",
      "type": "function"
    },
    {
      "inputs": [
        {
          "internalType": "address",
          "name": "newOwner",
          "type": "address"
        }
      ],
      "name": "transferOwnership",
      "outputs": [],
      "stateMutability": "nonpayable",
      "type": "function"
    }
  ],
  "bytecode": "0x60806040526000600c553480156200001657600080fd5b5060405162002abb38038062002abb833981016040819052620000399162000ad7565b80848460006200004a838262000c10565b50600162000059828262000c10565b5050506001600160a01b0381166200008c57604051631e4fbdf760e01b8152600060048201526024015b60405180910390fd5b6200009781620000bc565b50600d620000a6838262000c10565b50620000b2816200010e565b5050505062000e1d565b600b80546001600160a01b038381166001600160a01b0319831681179093556040519116919082907f8be0079c531659141344cd1fd0a4f28419497f9722a3daafe3b4186f6b6457e090600090a35050565b60005b6040811015620001eb578060006200012b60088362000cf2565b905060006200013c60088562000d1f565b60408051808201825284815260208082018481526000888152600e8352848120935184559051600190930192909255858252600f815282822084835290522084905590506200018c8584620001f4565b604080518381526020810183905284916001600160a01b038816917f2825d9b4fba056bcd5e1ed8a9c4ba38ccd4622cb27d1e2cea35c2d79b66d8ea5910160405180910390a35050508080620001e29062000d36565b91505062000111565b50506040600c55565b620002168282604051806020016040528060008152506200021a60201b60201c565b5050565b6200022683836200023b565b62000236336000858585620002a5565b505050565b6001600160a01b0382166200026757604051633250574960e11b81526000600482015260240162000083565b600062000276838383620003dd565b90506001600160a01b0381161562000236576040516339e3563760e11b81526000600482015260240162000083565b6001600160a01b0383163b15620003d657604051630a85bd0160e11b81526001600160a01b0384169063150b7a0290620002ea90889088908790879060040162000d52565b6020604051808303816000875af192505050801562000328575060408051601f3d908101601f19168201909252620003259181019062000da8565b60015b62000396573d80801562000359576040519150601f19603f3d011682016040523d82523d6000602084013e6200035e565b606091505b5080516000036200038e57604051633250574960e11b81526001600160a01b038516600482015260240162000083565b805160208201fd5b6001600160e01b03198116630a85bd0160e11b14620003d457604051633250574960e11b81526001600160a01b038516600482015260240162000083565b505b5050505050565b6000620003ec848484620003f4565b949350505050565b60008062000404858585620004d0565b90506001600160a01b03811662000464576200045e84600980546000838152600a60205260408120829055600182018355919091527f6e1540171b6c0c960b71a7020d9f60077f6af931a8bbf590da0223dacf75c7af0155565b6200048a565b846001600160a01b0316816001600160a01b0316146200048a576200048a8185620005cf565b6001600160a01b038516620004aa57620004a48462000653565b620003ec565b846001600160a01b0316816001600160a01b031614620003ec57620003ec85856200070d565b6000828152600260205260408120546001600160a01b039081169083161562000500576200050081848662000761565b6001600160a01b0381161562000540576200051f6000858180620007cb565b6001600160a01b038116600090815260036020526040902080546000190190555b6001600160a01b0385161562000570576001600160a01b0385166000908152600360205260409020805460010190555b60008481526002602052604080822080546001600160a01b0319166001600160a01b0389811691821790925591518793918516917fddf252ad1be2c89b69c2b068fc378daa952ba7f163c4a11628f55a4df523b3ef91a4949350505050565b6000620005dc83620008f9565b6000838152600860209081526040808320546001600160a01b03881684526007909252909120919250908183146200063457600083815260208281526040808320548584528184208190558352600890915290208290555b6000938452600860209081526040808620869055938552525081205550565b600954600090620006679060019062000ddb565b6000838152600a60205260408120546009805493945090928490811062000692576200069262000df1565b906000526020600020015490508060098381548110620006b657620006b662000df1565b6000918252602080832090910192909255828152600a90915260408082208490558582528120556009805480620006f157620006f162000e07565b6001900381819060005260206000200160009055905550505050565b600060016200071c84620008f9565b62000728919062000ddb565b6001600160a01b039093166000908152600760209081526040808320868452825280832085905593825260089052919091209190915550565b6200076e83838362000943565b62000236576001600160a01b0383166200079f57604051637e27328960e01b81526004810182905260240162000083565b60405163177e802f60e01b81526001600160a01b03831660048201526024810182905260440162000083565b8080620007e057506001600160a01b03821615155b15620008c9576000620007f384620009c9565b90506001600160a01b03831615801590620008205750826001600160a01b0316816001600160a01b031614155b80156200085357506001600160a01b0380821660009081526005602090815260408083209387168352929052205460ff16155b156200087e5760405163a9fbf51f60e01b81526001600160a01b038416600482015260240162000083565b8115620008c75783856001600160a01b0316826001600160a01b03167f8c5be1e5ebec7d5bd14f71427d1e84f3dd0314c0f7b2291e5b200ac8c7c3b92560405160405180910390a45b505b5050600090815260046020526040902080546001600160a01b0319166001600160a01b0392909216919091179055565b60006001600160a01b03821662000927576040516322718ad960e21b81526000600482015260240162000083565b506001600160a01b031660009081526003602052604090205490565b60006001600160a01b03831615801590620003ec5750826001600160a01b0316846001600160a01b031614806200099f57506001600160a01b0380851660009081526005602090815260408083209387168352929052205460ff165b80620003ec5750506000908152600460205260409020546001600160a01b03908116911614919050565b6000818152600260205260408120546001600160a01b03168062000a0457604051637e27328960e01b81526004810184905260240162000083565b92915050565b634e487b7160e01b600052604160045260246000fd5b60005b8381101562000a3d57818101518382015260200162000a23565b50506000910152565b600082601f83011262000a5857600080fd5b81516001600160401b038082111562000a755762000a7562000a0a565b604051601f8301601f19908116603f0116810190828211818310171562000aa05762000aa062000a0a565b8160405283815286602085880101111562000aba57600080fd5b62000acd84602083016020890162000a20565b9695505050505050565b6000806000806080858703121562000aee57600080fd5b84516001600160401b038082111562000b0657600080fd5b62000b148883890162000a46565b9550602087015191508082111562000b2b57600080fd5b62000b398883890162000a46565b9450604087015191508082111562000b5057600080fd5b5062000b5f8782880162000a46565b606087015190935090506001600160a01b038116811462000b7f57600080fd5b939692955090935050565b600181811c9082168062000b9f57607f821691505b60208210810362000bc057634e487b7160e01b600052602260045260246000fd5b50919050565b601f8211156200023657600081815260208120601f850160051c8101602086101562000bef5750805b601f850160051c820191505b81811015620003d45782815560010162000bfb565b81516001600160401b0381111562000c2c5762000c2c62000a0a565b62000c448162000c3d845462000b8a565b8462000bc6565b602080601f83116001811462000c7c576000841562000c635750858301515b600019600386901b1c1916600185901b178555620003d4565b600085815260208120601f198616915b8281101562000cad5788860151825594840194600190910190840162000c8c565b508582101562000ccc5787850151600019600388901b60f8161c191681555b5050505050600190811b01905550565b634e487b7160e01b600052601260045260246000fd5b60008262000d045762000d0462000cdc565b500690565b634e487b7160e01b600052601160045260246000fd5b60008262000d315762000d3162000cdc565b500490565b60006001820162000d4b5762000d4b62000d09565b5060010190565b600060018060a01b03808716835280861660208401525083604083015260806060830152825180608084015262000d918160a085016020870162000a20565b601f01601f19169190910160a00195945050505050565b60006020828403121562000dbb57600080fd5b81516001600160e01b03198116811462000dd457600080fd5b9392505050565b8181038181111562000a045762000a0462000d09565b634e487b7160e01b600052603260045260246000fd5b634e487b7160e01b600052603160045260246000fd5b611c8e8062000e2d6000396000f3fe608060405234801561001057600080fd5b50600436106101f05760003560e01c8063759eeb881161010f578063b07870f5116100a2578063da1fb98e11610071578063da1fb98e1461044e578063e985e9c514610461578063ec6c7f2e14610474578063f2fde38b1461048757600080fd5b8063b07870f51461040e578063b88d4fde14610421578063c87b56dd14610434578063cc2950c01461044757600080fd5b806395d89b41116100de57806395d89b41146103b35780639792cb8c146103bb57806397cdaaf9146103db578063a22cb465146103fb57600080fd5b8063759eeb881461038057806379f9607d146103935780637fc4eda81461039a5780638da5cb5b146103a257600080fd5b80633b17f4541161018757806355f804b31161015657806355f804b31461033f5780636352211e1461035257806370a0823114610365578063715018a61461037857600080fd5b80633b17f454146102d557806342842e0e146103115780634611a897146103245780634f6ccce71461032c57600080fd5b806318160ddd116101c357806318160ddd146102725780632127fbb31461028457806323b872dd146102af5780632f745c59146102c257600080fd5b806301ffc9a7146101f557806306fdde031461021d578063081812fc14610232578063095ea7b31461025d575b600080fd5b6102086102033660046115fc565b61049a565b60405190151581526020015b60405180910390f35b6102256104ab565b6040516102149190611669565b61024561024036600461167c565b61053d565b6040516001600160a01b039091168152602001610214565b61027061026b3660046116b1565b610566565b005b6009545b604051908152602001610214565b6102766102923660046116db565b600f60209081526000928352604080842090915290825290205481565b6102706102bd3660046116fd565b610575565b6102766102d03660046116b1565b610605565b6102fc6102e336600461167c565b600e602052600090815260409020805460019091015482565b60408051928352602083019190915201610214565b61027061031f3660046116fd565b61066a565b610276604081565b61027661033a36600461167c565b61068a565b61027061034d3660046117c5565b6106e3565b61024561036036600461167c565b610732565b61027661037336600461180e565b61073d565b610270610785565b61027661038e3660046116db565b610799565b6008610276565b610276600881565b600b546001600160a01b0316610245565b6102256107e5565b6103ce6103c936600461180e565b6107f4565b6040516102149190611829565b6103ee6103e936600461180e565b610896565b604051610214919061186d565b6102706104093660046118bc565b61097c565b61024561041c3660046116db565b610987565b61027061042f3660046118f8565b6109e0565b61022561044236600461167c565b6109f8565b6040610276565b6102fc61045c36600461167c565b610abb565b61020861046f366004611974565b610b49565b6102086104823660046119a7565b610b77565b61027061049536600461180e565b610be5565b60006104a582610c23565b92915050565b6060600080546104ba906119da565b80601f01602080910402602001604051908101604052809291908181526020018280546104e6906119da565b80156105335780601f1061050857610100808354040283529160200191610533565b820191906000526020600020905b81548152906001019060200180831161051657829003601f168201915b5050505050905090565b600061054882610c48565b506000828152600460205260409020546001600160a01b03166104a5565b610571828233610c81565b5050565b6001600160a01b0382166105a457604051633250574960e11b8152600060048201526024015b60405180910390fd5b60006105b1838333610c8e565b9050836001600160a01b0316816001600160a01b0316146105ff576040516364283d7b60e01b81526001600160a01b038086166004830152602482018490528216604482015260640161059b565b50505050565b60006106108361073d565b82106106415760405163295f44f760e21b81526001600160a01b03841660048201526024810183905260440161059b565b506001600160a01b03919091166000908152600760209081526040808320938352929052205490565b610685838383604051806020016040528060008152506109e0565b505050565b600061069560095490565b82106106be5760405163295f44f760e21b8152600060048201526024810183905260440161059b565b600982815481106106d1576106d1611a14565b90600052602060002001549050919050565b6106eb610c9b565b600d6106f78282611a70565b507f6741b2fc379fad678116fe3d4d4b9a1a184ab53ba36b86ad0fa66340b1ab41ad816040516107279190611669565b60405180910390a150565b60006104a582610c48565b60006001600160a01b038216610769576040516322718ad960e21b81526000600482015260240161059b565b506001600160a01b031660009081526003602052604090205490565b61078d610c9b565b6107976000610cc8565b565b60006008831080156107ab5750600882105b6107c75760405162461bcd60e51b815260040161059b90611b30565b506000918252600f6020908152604080842092845291905290205490565b6060600180546104ba906119da565b606060006108018361073d565b905060008167ffffffffffffffff81111561081e5761081e611739565b604051908082528060200260200182016040528015610847578160200160208202803683370190505b50905060005b8281101561088e5761085f8582610605565b82828151811061087157610871611a14565b60209081029190910101528061088681611b7d565b91505061084d565b509392505050565b606060006108a38361073d565b905060008167ffffffffffffffff8111156108c0576108c0611739565b60405190808252806020026020018201604052801561090557816020015b60408051808201909152600080825260208201528152602001906001900390816108de5790505b50905060005b8281101561088e57600061091f8683610605565b6000818152600e6020908152604091829020825180840190935280548352600101549082015284519192509084908490811061095d5761095d611a14565b602002602001018190525050808061097490611b7d565b91505061090b565b610571338383610d1a565b60006008831080156109995750600882105b6109b55760405162461bcd60e51b815260040161059b90611b30565b6000838152600f602090815260408083208584529091529020546109d881610732565b949350505050565b6109eb848484610575565b6105ff3385858585610db9565b6000818152600260205260409020546060906001600160a01b0316610a5f5760405162461bcd60e51b815260206004820152601f60248201527f55524920717565727920666f72206e6f6e6578697374656e7420746f6b656e00604482015260640161059b565b6000610a69610ee4565b90506000815111610a895760405180602001604052806000815250610ab4565b80610a9384610ef3565b604051602001610aa4929190611b96565b6040516020818303038152906040525b9392505050565b60008181526002602052604081205481906001600160a01b0316610b185760405162461bcd60e51b8152602060048201526014602482015273151bdad95b88191bd95cc81b9bdd08195e1a5cdd60621b604482015260640161059b565b50506000908152600e6020908152604091829020825180840190935280548084526001909101549290910182905291565b6001600160a01b03918216600090815260056020908152604080832093909416825291909152205460ff1690565b6000600883108015610b895750600882105b610ba55760405162461bcd60e51b815260040161059b90611b30565b6000838152600f602090815260408083208584529091529020546001600160a01b038516610bd282610732565b6001600160a01b03161495945050505050565b610bed610c9b565b6001600160a01b038116610c1757604051631e4fbdf760e01b81526000600482015260240161059b565b610c2081610cc8565b50565b60006001600160e01b0319821663780e9d6360e01b14806104a557506104a582610f86565b6000818152600260205260408120546001600160a01b0316806104a557604051637e27328960e01b81526004810184905260240161059b565b6106858383836001610fab565b60006109d88484846110b1565b600b546001600160a01b031633146107975760405163118cdaa760e01b815233600482015260240161059b565b600b80546001600160a01b038381166001600160a01b0319831681179093556040519116919082907f8be0079c531659141344cd1fd0a4f28419497f9722a3daafe3b4186f6b6457e090600090a35050565b6001600160a01b038216610d4c57604051630b61174360e31b81526001600160a01b038316600482015260240161059b565b6001600160a01b03838116600081815260056020908152604080832094871680845294825291829020805460ff191686151590811790915591519182527f17307eab39ab6107e8899845ad3d59bd9653f200f220920489ca2b5937696c31910160405180910390a3505050565b6001600160a01b0383163b15610edd57604051630a85bd0160e11b81526001600160a01b0384169063150b7a0290610dfb908890889087908790600401611bd5565b6020604051808303816000875af1925050508015610e36575060408051601f3d908101601f19168201909252610e3391810190611c12565b60015b610e9f573d808015610e64576040519150601f19603f3d011682016040523d82523d6000602084013e610e69565b606091505b508051600003610e9757604051633250574960e11b81526001600160a01b038516600482015260240161059b565b805160208201fd5b6001600160e01b03198116630a85bd0160e11b14610edb57604051633250574960e11b81526001600160a01b038516600482015260240161059b565b505b5050505050565b6060600d80546104ba906119da565b60606000610f008361117e565b600101905060008167ffffffffffffffff811115610f2057610f20611739565b6040519080825280601f01601f191660200182016040528015610f4a576020820181803683370190505b5090508181016020015b600019016f181899199a1a9b1b9c1cb0b131b232b360811b600a86061a8153600a8504945084610f5457509392505050565b60006001600160e01b03198216632483248360e11b14806104a557506104a582611256565b8080610fbf57506001600160a01b03821615155b15611081576000610fcf84610c48565b90506001600160a01b03831615801590610ffb5750826001600160a01b0316816001600160a01b031614155b801561100e575061100c8184610b49565b155b156110375760405163a9fbf51f60e01b81526001600160a01b038416600482015260240161059b565b811561107f5783856001600160a01b0316826001600160a01b03167f8c5be1e5ebec7d5bd14f71427d1e84f3dd0314c0f7b2291e5b200ac8c7c3b92560405160405180910390a45b505b5050600090815260046020526040902080546001600160a01b0319166001600160a01b0392909216919091179055565b6000806110bf8585856112a6565b90506001600160a01b03811661111c5761111784600980546000838152600a60205260408120829055600182018355919091527f6e1540171b6c0c960b71a7020d9f60077f6af931a8bbf590da0223dacf75c7af0155565b61113f565b846001600160a01b0316816001600160a01b03161461113f5761113f818561139f565b6001600160a01b03851661115b5761115684611420565b6109d8565b846001600160a01b0316816001600160a01b0316146109d8576109d885856114cf565b60008072184f03e93ff9f4daa797ed6e38ed64bf6a1f0160401b83106111bd5772184f03e93ff9f4daa797ed6e38ed64bf6a1f0160401b830492506040015b6d04ee2d6d415b85acef810000000083106111e9576d04ee2d6d415b85acef8100000000830492506020015b662386f26fc10000831061120757662386f26fc10000830492506010015b6305f5e100831061121f576305f5e100830492506008015b612710831061123357612710830492506004015b60648310611245576064830492506002015b600a83106104a55760010192915050565b60006001600160e01b031982166380ac58cd60e01b148061128757506001600160e01b03198216635b5e139f60e01b145b806104a557506301ffc9a760e01b6001600160e01b03198316146104a5565b6000828152600260205260408120546001600160a01b03908116908316156112d3576112d381848661151f565b6001600160a01b03811615611311576112f0600085600080610fab565b6001600160a01b038116600090815260036020526040902080546000190190555b6001600160a01b03851615611340576001600160a01b0385166000908152600360205260409020805460010190555b60008481526002602052604080822080546001600160a01b0319166001600160a01b0389811691821790925591518793918516917fddf252ad1be2c89b69c2b068fc378daa952ba7f163c4a11628f55a4df523b3ef91a4949350505050565b60006113aa8361073d565b6000838152600860209081526040808320546001600160a01b038816845260079092529091209192509081831461140157600083815260208281526040808320548584528184208190558352600890915290208290555b6000938452600860209081526040808620869055938552525081205550565b60095460009061143290600190611c2f565b6000838152600a60205260408120546009805493945090928490811061145a5761145a611a14565b90600052602060002001549050806009838154811061147b5761147b611a14565b6000918252602080832090910192909255828152600a909152604080822084905585825281205560098054806114b3576114b3611c42565b6001900381819060005260206000200160009055905550505050565b600060016114dc8461073d565b6114e69190611c2f565b6001600160a01b039093166000908152600760209081526040808320868452825280832085905593825260089052919091209190915550565b61152a838383611583565b610685576001600160a01b03831661155857604051637e27328960e01b81526004810182905260240161059b565b60405163177e802f60e01b81526001600160a01b03831660048201526024810182905260440161059b565b60006001600160a01b038316158015906109d85750826001600160a01b0316846001600160a01b031614806115bd57506115bd8484610b49565b806109d85750506000908152600460205260409020546001600160a01b03908116911614919050565b6001600160e01b031981168114610c2057600080fd5b60006020828403121561160e57600080fd5b8135610ab4816115e6565b60005b8381101561163457818101518382015260200161161c565b50506000910152565b60008151808452611655816020860160208601611619565b601f01601f19169290920160200192915050565b602081526000610ab4602083018461163d565b60006020828403121561168e57600080fd5b5035919050565b80356001600160a01b03811681146116ac57600080fd5b919050565b600080604083850312156116c457600080fd5b6116cd83611695565b946020939093013593505050565b600080604083850312156116ee57600080fd5b50508035926020909101359150565b60008060006060848603121561171257600080fd5b61171b84611695565b925061172960208501611695565b9150604084013590509250925092565b634e487b7160e01b600052604160045260246000fd5b600067ffffffffffffffff8084111561176a5761176a611739565b604051601f8501601f19908116603f0116810190828211818310171561179257611792611739565b816040528093508581528686860111156117ab57600080fd5b858560208301376000602087830101525050509392505050565b6000602082840312156117d757600080fd5b813567ffffffffffffffff8111156117ee57600080fd5b8201601f810184136117ff57600080fd5b6109d88482356020840161174f565b60006020828403121561182057600080fd5b610ab482611695565b6020808252825182820181905260009190848201906040850190845b8181101561186157835183529284019291840191600101611845565b50909695505050505050565b602080825282518282018190526000919060409081850190868401855b828110156118af5781518051855286015186850152928401929085019060010161188a565b5091979650505050505050565b600080604083850312156118cf57600080fd5b6118d883611695565b9150602083013580151581146118ed57600080fd5b809150509250929050565b6000806000806080858703121561190e57600080fd5b61191785611695565b935061192560208601611695565b925060408501359150606085013567ffffffffffffffff81111561194857600080fd5b8501601f8101871361195957600080fd5b6119688782356020840161174f565b91505092959194509250565b6000806040838503121561198757600080fd5b61199083611695565b915061199e60208401611695565b90509250929050565b6000806000606084860312156119bc57600080fd5b6119c584611695565b95602085013595506040909401359392505050565b600181811c908216806119ee57607f821691505b602082108103611a0e57634e487b7160e01b600052602260045260246000fd5b50919050565b634e487b7160e01b600052603260045260246000fd5b601f82111561068557600081815260208120601f850160051c81016020861015611a515750805b601f850160051c820191505b81811015610edb57828155600101611a5d565b815167ffffffffffffffff811115611a8a57611a8a611739565b611a9e81611a9884546119da565b84611a2a565b602080601f831160018114611ad35760008415611abb5750858301515b600019600386901b1c1916600185901b178555610edb565b600085815260208120601f198616915b82811015611b0257888601518255948401946001909101908401611ae3565b5085821015611b205787850151600019600388901b60f8161c191681555b5050505050600190811b01905550565b60208082526019908201527f436f6f7264696e61746573206f7574206f6620626f756e647300000000000000604082015260600190565b634e487b7160e01b600052601160045260246000fd5b600060018201611b8f57611b8f611b67565b5060010190565b60008351611ba8818460208801611619565b835190830190611bbc818360208801611619565b64173539b7b760d91b9101908152600501949350505050565b6001600160a01b0385811682528416602082015260408101839052608060608201819052600090611c089083018461163d565b9695505050505050565b600060208284031215611c2457600080fd5b8151610ab4816115e6565b818103818111156104a5576104a5611b67565b634e487b7160e01b600052603160045260246000fdfea2646970667358221220dee061682f18aea3a91168a234c976d111893718e250eaaef1523943e4a01ba564736f6c63430008140033",
  "linkReferences": {},
  "deployedLinkReferences": {}
}